:020000040800F2
:10000000008001204D350008DD080008DF080008E9
:10001000E1080008E3080008E50800080000000007
:10002000000000000000000000000000E7080008D9
:10003000E908000800000000EB080008ED080008CF
:100040009D3500089D3500089D3500089D35000848
:100050009D3500089D3500089D3500089D35000838
:100060009D3500089D350008F50800089D350008FD
:100070009D3500089D3500089D3500089D35000818
:100080009D3500089D3500089D3500089D35000808
:100090009D3500089D3500089D3500089D350008F8
:1000A0009D3500089D3500089D3500089D350008E8
:1000B0009D3500089D3500089D3500089D350008D8
:1000C0009D3500089D3500089D3500089D350008C8
:1000D0009D3500089D3500089D3500089D350008B8
:1000E000FF0800080D0900089D3500089D3500082F
:1000F0009D3500089D3500089D3500089D35000898
:100100009D3500089D3500089D3500089D35000887
:100110009D3500089D3500089D3500089D35000877
:100120009D3500089D3500089D3500089D35000867
:100130009D3500089D3500089D3500089D35000857
:100140009D3500089D3500089D3500089D35000847
:100150009D3500089D3500089D3500089D35000837
:100160009D3500089D3500089D3500089D35000827
:100170009D3500089D3500089D35000800000000F1
:080180009D3500089D350008C3
:1001900010B5054C237833B9044B13B10448AFF3C1
:1001A00000800123237010BD7000002000000000BB
:1001B0009C49000808B5034B1BB103490348AFF342
:1001C000008008BD00000000740000209C49000869
:1001D00001F0FF01102A2BDB10F0070F08D010F8F8
:1001E000013B013A8B422DD010F0070F42B3F6D1FC
:1001F000F0B441EA012141EA014122F007047FF015
:1002000000070023F0E80256083C85EA010586EA6B
:10021000010685FA47F5A3FA87F586FA47F6A5FAA7
:1002200087F68EB9EED1F0BC01F0FF0102F00702B3
:1002300032B110F8013B013A83EA010313B1F8D15E
:100240000020704701387047002D06BF354603383F
:10025000073815F0010F07D1013015F4807F02BF78
:10026000013015F4C03F0130F0BC0138704700BFC9
:1002700053B94AB9002908BF00281CBF4FF0FF310D
:100280004FF0FF3000F074B9ADF1080C6DE904CE09
:1002900000F006F8DDF804E0DDE9022304B0704761
:1002A0002DE9F047089D04468E46002B4DD18A4229
:1002B000944669D9B2FA82F252B101FA02F3C2F15C
:1002C000200120FA01F10CFA02FC41EA030E9440ED
:1002D0004FEA1C48210CBEFBF8F61FFA8CF708FB0E
:1002E00016E341EA034306FB07F199420AD91CEBE6
:1002F000030306F1FF3080F01F81994240F21C8118
:10030000023E63445B1AA4B2B3FBF8F008FB10335F
:1003100044EA034400FB07F7A7420AD91CEB040494
:1003200000F1FF3380F00A81A74240F20781644464
:10033000023840EA0640E41B00261DB1D4400023E9
:10034000C5E900433146BDE8F0878B4209D9002D4D
:1003500000F0EF800026C5E9000130463146BDE8D7
:10036000F087B3FA83F6002E4AD18B4202D3824241
:1003700000F2F980841A61EB030301209E46002DF0
:10038000E0D0C5E9004EDDE702B9FFDEB2FA82F245
:10039000002A40F09280A1EB0C014FEA1C471FFAA3
:1003A0008CFE0126200CB1FBF7F307FB131140EA8A
:1003B00001410EFB03F0884208D91CEB010103F157
:1003C000FF3802D2884200F2CB804346091AA4B219
:1003D000B1FBF7F007FB101144EA01440EFB00FEED
:1003E000A64508D91CEB040400F1FF3102D2A64552
:1003F00000F2BB800846A4EB0E0440EA03409CE7F1
:10040000C6F12007B34022FA07FC4CEA030C20FA9D
:1004100007F401FA06F31C43F9404FEA1C4900FABD
:1004200006F3B1FBF9F8200C1FFA8CFE09FB18113A
:1004300040EA014108FB0EF0884202FA06F20BD9AD
:100440001CEB010108F1FF3A80F08880884240F2FD
:100450008580A8F102086144091AA4B2B1FBF9F041
:1004600009FB101144EA014100FB0EFE8E4508D93C
:100470001CEB010100F1FF346CD28E456AD90238C1
:10048000614440EA0840A0FB0294A1EB0E01A142A6
:10049000C846A64656D353D05DB1B3EB080261EB14
:1004A0000E0101FA07F722FA06F3F1401F43C5E9EE
:1004B000007100263146BDE8F087C2F12003D84024
:1004C0000CFA02FC21FA03F3914001434FEA1C4766
:1004D0001FFA8CFEB3FBF7F007FB10360B0C43EA58
:1004E000064300FB0EF69E4204FA02F408D91CEB08
:1004F000030300F1FF382FD29E422DD90238634406
:100500009B1B89B2B3FBF7F607FB163341EA0341A5
:1005100006FB0EF38B4208D91CEB010106F1FF38F4
:1005200016D28B4214D9023E6144C91A46EA0046EB
:1005300038E72E46284605E70646E3E61846F8E67D
:100540004B45A9D2B9EB020864EB0C0E0138A3E7C6
:100550004646EAE7204694E74046D1E7D0467BE7A7
:10056000023B614432E7304609E76444023842E71F
:10057000704700BF70B588B00024039404940594BC
:1005800006940794394BDA6C42F00402DA64DA6CB0
:1005900002F004020092009ADA6C42F00102DA647E
:1005A000DA6C02F001020192019ADA6C42F0020266
:1005B000DA64DB6C03F002030293029B2C4E2246AA
:1005C0000321304601F037FE224640F201214FF070
:1005D000904001F030FE01224FF480714FF09040C6
:1005E00001F029FE4FF400530393224B049305942A
:1005F00003A9304601F02AFD032303930125049546
:100600000594069403A9304601F020FD40F2013321
:10061000039304950594069403A94FF0904001F0CC
:1006200015FD0823039304940595A6F5806603A998
:10063000304601F00BFD102303930F4B04930595F7
:1006400003A9304601F002FD224621460A2001F0AE
:1006500067FE0A2001F09CFE22462146282001F078
:100660005FFE282001F094FE08B070BD001002402B
:1006700000080048000021100000111010B582B0E1
:1006800004468DF807004FF47A7301220DF107013B
:10069000024802F0D5FB204602B010BD1401002034
:1006A00070B50C461646002504E014F8010BFFF760
:1006B000E5FF0135B542F8DB284670BD72B6FEE7AE
:1006C00008B51048104B03604FF482734360002359
:1006D00083604FF4E062C2600361012242614FF423
:1006E000007282613022C261036243628362072228
:1006F000C2620363436301F078FF00B908BDFFF7EE
:10070000DDFF00BFB00000200030014008B50B48FD
:100710000B4B03604FF4E133436000238360C360FD
:1007200003610C2242618361C3610362436202F090
:1007300028FC00B908BDFFF7C1FF00BF140100206D
:100740000044004010B592B000240D940E940F9414
:10075000109411940C942C22214601A802F044FF1D
:100760002748284B036044601F23836040F2FF3317
:10077000C360046144618461C46100F009FA002827
:1007800036D100228DF834208DF835208DF83620B2
:10079000109211920DA91A4800F052FA50BB012391
:1007A0008DF830308DF831308DF8323000228DF8F0
:1007B00033200CA9124800F0A7FAE8B900228DF8FE
:1007C00004208DF805208DF80620029204920592EF
:1007D00006920892099201238DF828304FF4807315
:1007E0000B9301A9064800F0E3FA38B912B010BD26
:1007F000FFF764FFFFF762FFFFF760FFFFF75EFFA1
:100800008C0000200028004000B5B9B0442200212F
:1008100027A802F0E9FE002122912391249125913D
:1008200026918822684602F0DFFE0A2227924FF4C2
:1008300080732A9310232B9301212C91022331934F
:10084000329333913492072235923693379327A807
:1008500000F086FC00BB0F23229303232393002385
:10086000249325932693042122A800F08FFFA8B992
:100870004FF00213009300230F934FF40073219362
:10088000684601F0B9F958B94FF4007001F0EEFC78
:1008900040B939B05DF804FBFFF710FFFFF70EFF1A
:1008A000FFF70CFFFFF70AFF08B500F07BFBFFF72F
:1008B000ABFFFFF75FFEFFF703FFFFF727FFFFF731
:1008C00041FF02F0B3FB044802F01CFFC82000F017
:1008D00091FB02F0BFFBF6E7B8490008FEE7FEE730
:1008E000FEE7FEE7FEE770477047704708B500F087
:1008F0006FFB08BD08B5102001F0A2FC08BD08B5CB
:100900004FF4005001F09CFC08BD000008B50248FF
:1009100000F0AAF808BD00BF8C00002082B00A4B8E
:100920001A6E42F001021A661A6E02F0010200927B
:10093000009A9A6D42F080529A659B6D03F0805345
:100940000193019B02B070470010024008B5026895
:10095000094B9A4200D008BD084AD2F8903043F4BF
:100960000043C2F8903000220121292001F0D8FC78
:10097000292001F00DFDEEE70028004000100240A4
:1009800000B589B00023039304930593069307935E
:100990000268144B9A4202D009B05DF804FB03F5DB
:1009A00060431A6E42F480521A661A6E02F4805244
:1009B0000192019ADA6C42F00102DA64DB6C03F016
:1009C00001030293029BE023039302230493032376
:1009D00006930523079303A94FF0904001F036FBDF
:1009E000DAE700BF0030014070B588B00023039300
:1009F00004930593069307930268194B9A4201D01A
:100A000008B070BD03F5E6339A6D42F400329A6582
:100A10009A6D02F400320192019ADA6C42F00102FE
:100A2000DA64DB6C03F001030293029B042303935B
:100A300002260496032506950724079403A94FF080
:100A4000904001F003FB08230393049601230593D0
:100A50000695079403A94FF0904001F0F7FACFE70D
:100A6000004400407047000010B50446154B4FF499
:100A700080225A6103689A6812F4805F03D0DA68B2
:100A800012F4807F0CD123689A6812F4005F03D0BF
:100A9000DA6812F4007F0BD1012384F8213010BDF5
:100AA000DA68D2B262F4C072DA60FFF7DBFFEAE71D
:100AB000DA68D2B262F42072DA60204600F048FAB6
:100AC000EAE700BF0004014038B504460268D36875
:100AD00023F0A003D36000F087FA05462368DB68A3
:100AE00013F0200F07D100F07FFA401BB0F57A7F9A
:100AF000F4D9032000E0002038BD70B50368DA683F
:100B000012F0400F02D00025284670BD04464FF079
:100B1000FF32DA6000F068FA064600252368DB68D9
:100B200013F0400FF0D1032DEED000F05DFA831BDF
:100B3000B3F57A7FF2D9032584F82150EEE700005F
:100B400010B50446114BDA6822F08002DA609B6827
:100B500013F0200F07D1FFF7B7FF0346A0B103231F
:100B600084F8213010E0094A936823F02003936051
:100B7000FFF7AAFF034610B1032384F8213003498D
:100B80008A6842F020028A60184610BD00280040A2
:100B9000002848D038B5044690F821306BB10223C4
:100BA00084F821302368CA225A62236853225A6289
:100BB0002046FFF7A2FF28B138BD80F82030FFF7AC
:100BC000C5FEECE72268936823F4E00323F04003BA
:100BD000936021688A68636820690343A0690343BE
:100BE00013438B602368E2681A6122681369A16865
:100BF00043EA014313612046FFF7A2FF0028DBD13F
:100C00002268D36C23F00303D3642168CB6CE269C0
:100C100065692A431343CB642368FF225A62012388
:100C200084F82130C8E701207047002302E0013337
:100C30000A38C0B20928FAD81B01DBB21843704742
:100C400090F82030012B5DD070B504460D46164655
:100C5000012380F82030022380F821300368CA2263
:100C60005A62036853225A62FFF747FF68BB002E9F
:100C700036D123689B6813F0400F01D10023EB703D
:100C80002878FFF7D2FF06046878FFF7CEFF46EA20
:100C90000026A878FFF7C9FF3043EB7840EA83507D
:100CA000236800F07F3020F0FE40186022689368CF
:100CB00023F48023936021688B68EA6828690243E3
:100CC00013438B602046FFF73BFF2368FF225A62E5
:100CD00010B9012384F82130002384F8203070BD3E
:100CE00023689B6813F0400F01D10023EB702B7831
:100CF0006878000240EA0340AB781843EB7840EA9A
:100D00008350CDE70220704790F82030012B4CD063
:100D100070B504460E46012380F82030022380F887
:100D200021303AB94B7813F0100F03D003F0EF03E2
:100D30000A334B7022BBF078FFF777FF0504707819
:100D4000FFF773FF45EA0025B078FFF76EFF054314
:100D5000307845EA40352368CA225A622368532214
:100D60005A622046FFF7C9FEA8B12368FF225A62E3
:100D700010B9012384F82130002384F8203070BD9D
:100D8000F37875782D0245EA0345B078054330784D
:100D900045EA4035DFE7236825F07F4525F0C005AB
:100DA0005D602046FFF7CCFEDFE7022070470000C1
:100DB000F8B590F82030012B00F0C68004460D46AF
:100DC000012380F82030022380F82130002A50D1FE
:100DD00003689B6813F0400F01D10023CB702E6A8B
:100DE0002878FFF722FF07046878FFF71EFF47EA1D
:100DF0000027A878FFF719FF0743E87847EA8057EC
:100E000095F82400FFF711FF47EA00673E436B693E
:100E10001E436F68EB691F432368CA225A62236826
:100E200053225A62AB6AB3F5807F3CD02268936844
:100E300023F4007393602268D368DBB263F42073F9
:100E4000D36000F0D1F805462368DA6812F0020F8B
:100E50005AD100F0C9F8401BB0F57A7FF4D9236865
:100E6000FF225A62032084F82100002384F82030F6
:100E700069E003689B6813F0400F01D10023CB7039
:100E80002B786E78360246EA0346AB781E43EB7841
:100E900046EA835695F8243046EA03662B6A1E43D9
:100EA0006B691E43B5E72268936823F480739360EF
:100EB0002268D368DBB263F4C073D36000F094F8A7
:100EC00005462368DA6812F0010F0FD100F08CF8A4
:100ED000401BB0F57A7FF4D92368FF225A620320C1
:100EE00084F82100002384F820302CE0DE612368A0
:100EF0005F642268936843F4807393602268936808
:100F000043F4805393600CE01E6223689F64226860
:100F1000936843F4007393602268936843F400532A
:100F200093600A4B1A6842F480221A609A6842F46D
:100F300080229A602368FF225A62012384F82130BC
:100F4000002084F82000F8BD0220FCE700040140E6
:100F500070470000104B1B780BB90120704710B58B
:100F600004464FF47A70B0FBF3F30C4A1068B0FB00
:100F7000F3F001F01BFA68B90F2C01D901200AE047
:100F8000002221464FF0FF3001F0CAF9044B1C60EB
:100F9000002000E0012010BD00000020080000201B
:100FA0000400002010B5094A136843F480731360ED
:100FB000032001F0A3F90020FFF7CCFF10B10124BA
:100FC000204610BD0446FFF7A9FCF9E700200240C7
:100FD000034B1B78034A11680B441360704700BF32
:100FE0000000002094010020014B1868704700BFEA
:100FF0009401002038B50446FFF7F6FF0546B4F12A
:10100000FF3F02D0044B1B781C44FFF7EDFF401B51
:10101000A042FAD338BD00BF0000002030B583B035
:101020000446204B9B6D13F0805F0BD001F016F946
:10103000B0F5007F17D0802C1FD82DD0702C2DD06C
:1010400000211BE0174DAB6D43F08053AB65AB6DDA
:1010500003F080530193019B01F000F9AB6D23F085
:101060008053AB65E4E7802C03D9A02C03D902217F
:1010700004E0002102E0012100E003210A4A136894
:1010800023F007030B431360136803F007038B423D
:1010900006D1002003B030BD0221EFE70121EDE7CA
:1010A0000120F7E70010024000200240284A936820
:1010B000D26802F0030213F00C030AD00C2B06D006
:1010C000042B1FD0082B20D00020024610E0012A5C
:1010D000F6D11F4A126812F0080F0CD11C4AD2F840
:1010E0009420C2F303221B4951F8222043B100206F
:1010F0000C2B0DD07047164A1268C2F30312F2E7A8
:101100001046F5E714480022F2E714480022EFE702
:101110000F4BDB6803F00303022B16D0032B00D127
:101120000E4A0B49C868C0F30210431CC868C0F3DC
:10113000062002FB00F0B0FBF3F0CB68C3F3416381
:1011400001335B00B0FBF3F0D4E7034AE9E700BFEB
:1011500000100240E84900080024F40000127A0060
:10116000002800F0FC82F0B583B00446964B9D68E1
:1011700005F00C05DE6806F00306036813F0100F97
:101180005AD0E5B10C2D18D0A369002B00F0BB801C
:101190008D4A136843F001031360FFF725FF0746EC
:1011A000894B1B6813F0020F40F09A80FFF71CFF79
:1011B000C01B0228F4D90320DCE2012EE4D1824BCB
:1011C0001B6813F0020F03D0A369002B00F0C98243
:1011D000206A7D4B1B6813F0080F5BD07A4B1B68AD
:1011E00003F0F00398425CD8774B1A6842F008028B
:1011F0001A601A6822F0F002216A0A431A605A68DB
:1012000022F47F42E16942EA01225A60002D60D057
:10121000FFF74CFF6C4B9B68C3F303136B4AD35C23
:1012200003F01F03D8406A4B18606A4B1868FFF739
:1012300091FE002840F09E82236813F0010F00F019
:101240008180082D75D00C2D71D06368B3F5803F77
:1012500000F09780B3F5A02F00F099805A4B1A68E0
:1012600022F480321A601A6822F480221A606368BD
:10127000002B00F09980FFF7B7FE0746524B1B6822
:1012800013F4003F5ED1FFF7AFFEC01B6428F5D911
:1012900003206FE24C4BD3F894301B0903F0F003AA
:1012A000A0E7FFF7BBFE002840F05D82464B1A68BE
:1012B00042F008021A601A6822F0F002216A0A431A
:1012C0001A605A6822F47F42E16942EA01225A60B8
:1012D0009EE7206AFFF7A2FE002899D0012049E28C
:1012E000394B1A6842F008021A601A6822F0F002BC
:1012F000216A0A431A605A6822F47F42E16942EA8D
:1013000001225A6098E7304A136823F00103136002
:10131000FFF76AFE07462C4B1B6813F0020F8BD0B9
:10132000FFF762FEC01B0228F5D9032022E2032E3C
:101330008BD1254B1B6813F4003F03D06368002B4F
:1013400000F01382236813F0020F58D0042D45D00B
:101350000C2D41D0E368002B77D01B4A136843F46F
:1013600080731360FFF740FE0646174B1B6813F4AB
:10137000806F61D1FFF738FE801B0228F5D903206A
:10138000F8E1114A136843F4803313606FE703F107
:101390008043A3F53C331A6842F480221A601A682D
:1013A00042F480321A6062E7FFF71EFE0746064BE2
:1013B0001B6813F4003FC5D0FFF716FEC01B64285E
:1013C000F5D90320D6E100BF00100240D049000843
:1013D0000800002004000020022EBBD1954B1B68A2
:1013E00013F4806F03D0E368002B00F0C081914AB2
:1013F000536823F0F853216943EA0163536023687B
:1014000013F0080F4CD063699BB38A4AD2F894302A
:1014100043F00103C2F89430FFF7E6FD0646854B22
:10142000D3F8943013F0020F3AD1FFF7DDFD801BA3
:101430000228F4D903209DE17E4A536823F0F85333
:10144000216943EA01635360D9E77A4A136823F4B8
:1014500080731360FFF7C8FD0646764B1B6813F4D4
:10146000806FCCD0FFF7C0FD801B0228F5D9032088
:1014700080E1704AD2F8943023F00103C2F894302E
:10148000FFF7B2FD06466B4BD3F8943013F0020F12
:1014900006D0FFF7A9FD801B0228F4D9032069E1DB
:1014A000236813F0040F7AD0624B9B6D13F0805FBA
:1014B00036D1604B9A6D42F080529A659B6D03F075
:1014C00080530193019B01265B4B1B6813F4807FC3
:1014D00028D0A368012B39D0052B3FD0554BD3F82A
:1014E000902022F00102C3F89020D3F8902022F03F
:1014F0000402C3F89020A368002B3DD0FFF774FDD1
:1015000007464C4BD3F8903013F0020F46D1FFF74B
:101510006BFDC01B41F288339842F2D9032029E1C8
:101520000026D1E7444A136843F480731360FFF741
:101530005BFD0746404B1B6813F4807FC9D1FFF762
:1015400053FDC01B0228F5D9032013E1394AD2F814
:10155000903043F00103C2F89030CCE7354BD3F81C
:10156000902042F00402C3F89020D3F8902042F07B
:101570000102C3F89020BEE7FFF736FD07462D4B6A
:10158000D3F8903013F0020F08D0FFF72DFDC01BE9
:1015900041F288339842F2D90320EBE06EBBA36A94
:1015A000002B00F0E680022B2DD00C2D00F0E880FF
:1015B000204B1A6822F080721A601B6813F0205FBB
:1015C00004D11C4AD36823F00303D360194AD368BB
:1015D00023F0887323F48033D360FFF705FD0446BE
:1015E000144B1B6813F0007F00F0B780FFF7FCFC82
:1015F000001B0228F4D90320BCE00E4A936D23F0AF
:1016000080539365CBE70B4BDB6803F00301E26A81
:10161000914213D00C2D00F0AF80064B1B6813F0E5
:10162000806F40F0AB80034B1B6813F0805F31D0BC
:1016300001209FE0001002400070004003F07002A3
:10164000216B0139B2EB011FE4D103F4FE42616B5F
:10165000B2EB012FDED103F40031A26B073A18BFC1
:1016600001229142D6D103F4C001E26B5208013A43
:10167000B1EB425FCED103F0C063226C5208013A55
:10168000B3EB426FC6D13F4B1B6813F0007F4AD0CB
:1016900000206FE03B4A136823F080731360FFF76C
:1016A000A3FC0546374B1B6813F0007F06D0FFF7FD
:1016B0009BFC401B0228F5D903205BE0314AD3682C
:1016C00031491940E36A206B013843EA0013606B2B
:1016D00043EA0023E06B4008013843EA4053206CA2
:1016E0004008013843EA4063A06B000943EA4043E5
:1016F0000B43D360136843F080731360D36843F0E7
:101700008073D360FFF770FC04461E4B1B6813F018
:10171000007F06D1FFF768FC001B0228F5D90320E3
:1017200028E0002026E0174B1A6842F080721A6009
:10173000DA6842F08072DA60FFF756FC0446114B1B
:101740001B6813F0007F06D1FFF74EFC031B022B32
:10175000F5D903200EE000200CE000200AE0012073
:101760007047012006E0012004E0012002E0012092
:1017700000E0002003B0F0BD0120FBE70120F9E705
:101780000120F7E7001002408C809DF9002800F04E
:10179000988070B50C4605464E4B1B6803F0070356
:1017A0008B420BD24B4A136823F007030B431360A1
:1017B000136803F007038B4240F085802B6813F019
:1017C000010F39D06B68032B09D0022B26D063BBE5
:1017D000414A126812F0020F06D1012070E03E4A21
:1017E000126812F0007F70D03B498A6822F0030231
:1017F00013438B60FFF7F8FB0646374B9B6803F0FB
:101800000C036A68B3EB820F16D0FFF7EDFB801B69
:1018100041F288339842F0D9032051E02E4A1268F1
:1018200012F4003FE0D101204AE02B4A126812F482
:10183000806FD9D1012043E02B6813F0020F06D04E
:10184000254A936823F0F003A9680B439360214B6A
:101850001B6803F00703A3420AD91E4A136823F04A
:10186000070323431360136803F00703A3422ED139
:101870002B6813F0040F06D0174A936823F4E06333
:10188000E9680B4393602B6813F0080F07D0124AE6
:10189000936823F46053296943EAC1039360FFF717
:1018A00005FC0D4B9B68C3F303130C4AD35C03F098
:1018B0001F03D8400A4B18600A4B1868FFF74AFB11
:1018C00070BD012070470120FAE70120F8E70120F0
:1018D000F6E700BF0020024000100240D049000897
:1018E0000800002004000020014B1868704700BF6A
:1018F0000800002008B5FFF7F7FF054B9B68C3F30E
:101900000223044AD35C03F01F03D84008BD00BF84
:1019100000100240E049000808B5FFF7E5FF054B5D
:101920009B68C3F3C223044AD35C03F01F03D8406F
:1019300008BD00BF00100240E0490008F8B50446A9
:101940000F46594BDB6813F0030F18D0564BDB687A
:1019500003F003030268934202D001252846F8BD34
:10196000002A00F09E80504BDB68C3F30213013362
:101970004268934201D00125F0E7002509E00368A1
:10198000022B57D0032B5CD0012B42D00125002D18
:10199000E4D1454A136823F080631360FFF724FB0A
:1019A0000646414B1B6813F0006F05D0FFF71CFB88
:1019B000831B022BF5D90325002DCFD1002F4ED14B
:1019C00039490B6923F41F3323F44073A068E2689C
:1019D0001209520442EA002213430B61324A13688F
:1019E00043F080631360FFF7FFFA06462E4B1B6837
:1019F00013F0006F05D1FFF7F7FA831B022BF5D91F
:101A00000325002DAAD1284A1369A1690B4313614C
:101A1000A4E7254A126812F0020F1ED02248C268BD
:101A200022F073026168013943EA01131343C36072
:101A30000025ACE71C4A126812F4806FEED1012534
:101A4000A5E7194A126812F4003FE7D1164A126856
:101A500012F4802FE2D1012599E7012597E7012FA4
:101A60000FD01148026922F0C06222F4FE42A16840
:101A700063695B08013B5B0643EA0123134303618F
:101A8000ACE70948026922F4C00222F4FE42A168D0
:101A900023695B08013B5B0543EA012313430361B0
:101AA0009CE701255AE700BF00100240F8B5044644
:101AB0000F46504BDB6813F0030F18D04D4BDB681B
:101AC00003F003030268934202D001252846F8BDC3
:101AD000002A00F08C80474BDB68C3F3021301330C
:101AE0004268934201D00125F0E7002509E0036830
:101AF000022B57D0032B5CD0012B42D00125002DA7
:101B0000E4D13C4A136823F080531360FFF76CFA6A
:101B10000646384B1B6813F0005F05D0FFF764FAE8
:101B2000831B022BF5D90325002DCFD1002F4ED1D9
:101B300030494B6923F41F3323F44073A068E268F3
:101B40001209520442EA002213434B61294A1368E6
:101B500043F080531360FFF747FA0646254B1B6896
:101B600013F0005F05D1FFF73FFA831B022BF5D975
:101B70000325002DAAD11F4A536961690B435361A4
:101B8000A4E71C4A126812F0020F1ED01948C2685E
:101B900022F073026168013943EA01131343C36001
:101BA0000025ACE7134A126812F4806FEED10125CC
:101BB000A5E7104A126812F4003FE7D10D4A1268F7
:101BC00012F4802FE2D1012599E7012597E7094812
:101BD000426922F0C06222F4FE42A16823695B08D8
:101BE000013B5B0643EA012313434361AEE7012552
:101BF0006CE700BF001002402DE9F04182B00446BE
:101C0000036813F4006F33D0436EB3F5000F1FD099
:101C10000CD823B3B3F5800F05D100212030FFF796
:101C200045FF064620E001273E4623E0B3F5400F7E
:101C30000BD10026604AD2F8883023F44003616E4D
:101C40000B43C2F88830002714E001273E4611E01C
:101C5000594AD36843F48033D3600026EAE7002171
:101C60000430FFF76BFE0646002EE3D0374601E056
:101C700000273E46236813F4805F30D0A36EB3F193
:101C8000007F1FD00DD81BB3B3F1807F06D1002198
:101C900004F12000FFF70AFF064605E001273E4653
:101CA0001DE0B3F1407F0AD1C6B9434AD2F888306B
:101CB00023F04073A16E0B43C2F888300FE0012778
:101CC0003E460CE03C4AD36843F48033D360EBE7F4
:101CD0000021201DFFF732FE0646E5E73746236860
:101CE00013F4003F71D0344B9B6D13F0805F4ED1E5
:101CF000314B9A6D42F080529A659B6D03F0805390
:101D00000193019B4FF001082C4A136843F4807340
:101D10001360FFF769F90546284B1B6813F4807FB1
:101D200005D1FFF761F9401B0228F5D90326002EE3
:101D300046D1214BD3F8903013F4407316D0D4F829
:101D400084209A4212D01C4AD2F8903023F4407377
:101D5000D2F8901041F48031C2F89010D2F890106F
:101D600021F48031C2F89010C2F8903013F0010FC6
:101D700010D1002E40F027810F4AD2F8903023F482
:101D80004073D4F884100B43C2F8903019E04FF040
:101D90000008B9E7FFF728F90546074BD3F890305C
:101DA00013F0020FE5D1FFF71FF9401B41F2883312
:101DB0009842F2D90326DCE7001002400070004090
:101DC0003746B8F1000F40F00081236813F0010F8F
:101DD00008D09D4AD2F8883023F00303A16B0B434F
:101DE000C2F88830236813F0020F08D0964AD2F860
:101DF000883023F00C03E16B0B43C2F88830236872
:101E000013F0040F08D0904AD2F8883023F0300342
:101E1000216C0B43C2F88830236813F0080F08D0F8
:101E2000894AD2F8883023F0C003616C0B43C2F8B2
:101E30008830236813F0100F08D0834AD2F8883016
:101E400023F44073A16C0B43C2F88830236813F06D
:101E5000200F08D07C4AD2F8883023F44063E16C2C
:101E60000B43C2F88830236813F4007F08D0764A09
:101E7000D2F8883023F44023E16D0B43C2F8883058
:101E8000236813F4806F08D06F4AD2F8883023F4A7
:101E90004013216E0B43C2F88830236813F0400FC3
:101EA00008D0694AD2F8883023F44053216D0B439F
:101EB000C2F88830236813F0800F08D0624AD2F845
:101EC000883023F44043616D0B43C2F888302368A7
:101ED00013F4807F08D05C4AD2F8883023F4403372
:101EE000A16D0B43C2F88830236813F4005F0FD054
:101EF000554AD2F8883023F04063E16E0B43C2F8B4
:101F00008830E36EB3F1006F65D0B3F1806F67D0B6
:101F1000236813F4002F0FD04B4AD2F8883023F0F7
:101F20004063216F0B43C2F88830236FB3F1006F19
:101F30005ED0B3F1806F60D0236813F4802F0FD090
:101F4000414AD2F8883023F04063616F0B43C2F8F6
:101F50008830636FB3F1006F57D0B3F1806F59D001
:101F6000236813F4804F0FD0374AD2F8883023F01B
:101F70004053A16F0B43C2F88830A36FB3F1805F69
:101F800050D0B3F1005F55D0236813F4004F08D050
:101F90002D4AD2F8883023F08043E16F0B43C2F81A
:101FA0008830236813F4803F09D0274AD2F888305C
:101FB00023F00043D4F880100B43C2F88830384631
:101FC00002B0BDE8F0813746FBE61F4A936D23F06F
:101FD00080539365F9E6D36843F48013D36097E7A1
:101FE0000121201DFFF7AAFC002891D007468FE7AA
:101FF000D36843F48013D3609EE70121201DFFF7CF
:102000009DFC002898D0074696E7D36843F48013D8
:10201000D360A5E70121201DFFF790FC00289FD089
:1020200007469DE70221201DFFF788FC0028ABD062
:102030000746A9E7022104F12000FFF737FD002839
:10204000A2D00746A0E700BF00100240F0B583B061
:10205000002340E0C56A25EA0C0CC4F3C0049C4090
:1020600044EA0C04C46262E0062400E00024B440A8
:102070003C430235684E46F82540684C2568D443F9
:1020800025EA02064F6817F4803F01D042EA0506B0
:10209000624D2E606D6804EA05064F6817F4003F34
:1020A00001D042EA05065D4D6E60AD6804EA0506A2
:1020B0004F6817F4801F01D042EA0506574DAE6005
:1020C000ED682C404E6816F4001F01D042EA05046A
:1020D000524AD46001330A6832FA03F400F099805E
:1020E0004FF0010C0CFA03FC1CEA0202F2D04C681F
:1020F000651E012D03D9112C01D0122C12D1856837
:102100005E000324B44025EA0405CC68B4402C43A7
:102110008460456825EA0C054C68C4F300149C40B3
:102120002C4344604C6804F00305032D92D0C6682C
:102130004FEA430C032505FA0CF5EC4326EA050E9D
:102140008D6805FA0CF545EA0E05C5604D68022D4F
:1021500001D0122D12D1DE08083650F8267003F097
:1021600007054FEA850E0F2505FA0EF527EA050744
:102170000D6905FA0EF53D4340F8265005682540E7
:102180004C6804F0030404FA0CF42C4304604C681B
:1021900014F0805F9ED0224C256E45F00105256627
:1021A000246E04F001040194019C9D08AE1C1A4C9D
:1021B00054F8267003F00304A6000F24B44027EA65
:1021C0000407B0F1904F3FF451AF164CA04216D027
:1021D00004F58064A04214D004F58064A04212D0BB
:1021E00004F58064A04210D004F58064A0420ED0B3
:1021F00004F58064A0423FF437AF072437E7012499
:1022000035E7022433E7032431E704242FE70524CC
:102210002DE703B0F0BD00BF000001400004014005
:1022200000100240000400480369194201D0012057
:102230007047002070470AB1816170478162704722
:1022400008B5054B5B69034200D108BD024B5861DC
:1022500001F064F9F9E700BF00040140024B18687F
:1022600000F4C060704700BF00700040B0F5007F10
:102270000FD01F4B1B6803F4C063B3F5806F34D0DD
:102280001B4A136823F4C06343F480631360002087
:102290007047174B1B6803F4C063B3F5007F20D071
:1022A000134A136823F4C06343F400731360114BA3
:1022B0001B68322202FB03F30F4AA2FB03239B0C91
:1022C000013300E0013B0A4A526912F4806F01D0E9
:1022D000002BF7D1064B5B6913F4806F03D100200C
:1022E000704700207047032070470020704700BFF0
:1022F000007000400800002083DE1B43074AD368BB
:1023000023F4E0631B041B0C000200F4E0600343B1
:1023100043F0BF6343F40033D360704700ED00E047
:1023200000B5194BDB68C3F30223C3F1070CBCF102
:10233000040F28BF4FF0040C03F1040EBEF1060F8A
:1023400018D9033B4FF0FF3E0EFA0CFC21EA0C01BA
:1023500099400EFA03F322EA0303194300280BDB2A
:102360000901C9B200F1604000F5614080F8001336
:102370005DF804FB0023E5E700F00F000901C9B296
:10238000024B1954F4E700BF00ED00E014ED00E04B
:10239000002807DB00F01F02400901239340024A96
:1023A00042F82030704700BF00E100E00138B0F192
:1023B000807F0BD24FF0E0235861054AF02182F86C
:1023C00023100020986107221A617047012070478E
:1023D00000ED00E02DE9F04782B00546884617463B
:1023E0001E46FEF701FE0A9B1B1A03EB0609FEF7C9
:1023F000FBFD82462B4B1B68C3F3CB3309FB03F376
:1024000001932B689C6838EA04030CBF4FF0010C61
:102410004FF0000CBC4540D0B6F1FF3FF1D0FEF7C5
:10242000E3FDA0EB0A0048450AD2B9F1000F07D03E
:10243000019A02B14A46019B013B01939146E0E7B4
:102440002A68536823F0E00353606B68B3F5827F1A
:102450000BD0AB6AB3F5005F14D0012385F85D3073
:10246000002385F85C30032018E0AB68B3F5004F1B
:1024700002D0B3F5806FECD12A68136823F04003D3
:102480001360E6E72A68136823F4005313602A6890
:10249000136843F400531360DFE7002002B0BDE887
:1024A000F08700BF080000202DE9F04782B0074602
:1024B0000D4616469846FEF797FD0A9B1B1A03EB3E
:1024C0000809FEF791FD82462E4B1B6803EB830340
:1024D000C3EBC3031B0D09FB03F3019302E0B8F147
:1024E000FF3F0CD13B689C6804EA050CB44544D01E
:1024F000B5F5C06FF3D1002EF1D11B7BEFE7FEF7EE
:1025000073FDA0EB0A0048450AD2B9F1000F07D0CD
:10251000019A02B14A46019B013B01939146E1E7D2
:102520003A68536823F0E00353607B68B3F5827F19
:102530000BD0BB6AB3F5005F14D0012387F85D3080
:10254000002387F85C30032018E0BB68B3F5004F28
:1025500002D0B3F5806FECD13A68136823F04003E2
:102560001360E6E73A68136823F4005313603A688F
:10257000136843F400531360DFE7002002B0BDE8A6
:10258000F08700BF0800002070B582B004460D46F9
:10259000164600920B4600224FF4C051FFF784FF0D
:1025A000B0B900962B46002280212046FFF712FF8B
:1025B000A8B900962B4600224FF4C0612046FFF7D1
:1025C00073FF50B1236E43F020032366032004E021
:1025D000236E43F020032366032002B070BD236EF8
:1025E00043F0200323660320F7E700286AD010B5E4
:1025F0000446436A33B94368B3F5827F05D00023AC
:10260000C36102E00023036143610023A36294F8E5
:102610005D30002B4DD0022384F85D3022681368B2
:1026200023F040031360E368B3F5E06F47D900225D
:10263000B3F5706F04D0B3F5E06F01D00023A3624F
:10264000636803F48273A16801F404410B432169B8
:1026500001F002010B43616901F001010B43A16923
:1026600001F400710B43E16901F038010B43216A69
:1026700001F080010B43A16A01F4005120680B4373
:102680000360638B03F00403616A01F010010B43E4
:10269000616B01F008010B43E16801F470610B43C9
:1026A000216813434B6000202066012384F85D30CD
:1026B00010BD84F85C302046FEF762F9ABE74FF4BA
:1026C0008052B5E7012070472DE9F8431F46089D69
:1026D00090F85C30012B00F06481044688469146F6
:1026E000012380F85C30FEF77FFC064694F85D30ED
:1026F000DBB26268012B0AD0B2F5827F40F03881EC
:10270000A268002A40F03D81042B40F03C81B8F1E2
:10271000000F00F03A81B9F1000F00F03881002F6E
:1027200000F0378194F85D30DBB2042B02D0052332
:1027300084F85D3000232366C4F84090A4F8467006
:10274000A4F84470C4F83880E787A787E36423655A
:10275000E368B3F5E06F01D8012F23D922685368ED
:1027600023F48053536023681A6812F0400F03D19A
:102770001A6842F040021A60E368B3F5E06F58D976
:1027800063680BB1012F0BD1A26B23681288DA604A
:10279000A36B0233A363E38F9BB2013B9BB2E3873E
:1027A000012731E02268536843F480535360DAE72D
:1027B000A26B1288DA60A36B0233A363E38F9BB230
:1027C000013B9BB2E387002723689A6812F0010F50
:1027D00011D0B4F8462092B26AB1DA68236C1A803C
:1027E000236C02332364B4F846309BB2013B9BB2A6
:1027F000A4F846300127FEF7F7FB831BAB4203D357
:10280000B5F1FF3F40F0C780E38F9BB22BB9B4F81E
:1028100046309BB2002B00F0A18023689A6812F02A
:10282000020FD1D0E28F92B2002ACDD0002FCBD0B0
:10283000BEE763680BB1012F0FD1E38F9BB2012B71
:102840000DD9A26B23681288DA60A36B0233A363ED
:10285000E38F9BB2023B9BB2E387012749E0A26B67
:10286000236812781A73A36B0133A363E38F9BB2BF
:10287000013B9BB2E387F0E7E28F92B2012A0CD9C9
:10288000A26B1288DA60A36B0233A363E38F9BB25F
:10289000023B9BB2E38700273DE0A26B12781A73DC
:1028A000A36B0133A363E38F9BB2013B9BB2E3872E
:1028B000002730E02268536843F4805353600127B7
:1028C0000DE0226C1B7B1370236C01332364B4F87E
:1028D00046309BB2013B9BB2A4F846300127FEF77D
:1028E00083FB801BA84202D3B5F1FF3F55D1002DD9
:1028F00055D0E38F9BB223B9B4F846309BB2002B7E
:102900002CD023689A6812F0020F04D0E28F92B2A2
:102910000AB1002FB0D123689A6812F0010FDED0FF
:10292000B4F8462092B2002AD9D0B4F8462092B228
:10293000012AC6D9DA68236C1A80236C0233236417
:10294000B4F846309BB2023B9BB2A4F84630B4F8D0
:1029500046309BB2012BADD90127C0E7324629464C
:102960002046FFF711FE20B120232366012000E05E
:102970000220012384F85D30002384F85C30BDE838
:10298000F8830220F5E70220F3E70120F1E70120B8
:10299000EFE70120EDE70320EBE70320E9E7032061
:1029A000E7E70220EBE7000010B504460168836802
:1029B0000269134342691343C269134308688E4A8C
:1029C000024013430B602268536823F44053E168CC
:1029D0000B435360A1692268884B9A4201D0236A55
:1029E0001943936823F430630B4393602368844A4C
:1029F000934210D0834A934221D0834A934237D0E6
:102A0000824A93425CD0824A93426BD07B4A934283
:102A10007DD010223AE002F55842D2F8882002F028
:102A20000302032A09D8DFE802F002048706012224
:102A30002CE004222AE0082228E0102226E002F5F9
:102A4000E632D2F8882002F00C020C2A0ED8DFE819
:102A500002F0070D0D0D090D0D0D750D0D0D0B007F
:102A6000002213E0042211E008220FE010220DE002
:102A700002F5E432D2F8882002F03002202A5FD03A
:102A80001AD8002A5ED0102A5ED104225B498B42FC
:102A900076D0E069B0F5004F00F0A380082A00F27C
:102AA0000E81DFE812F0DD00F300DB000C01F60020
:102AB0000C010C010C01F900302A47D10822E5E78E
:102AC00002F5E232D2F8882002F0C002802A3FD01C
:102AD00004D8FAB3402A3FD10422D7E7C02A3DD117
:102AE0000822D3E702F5E032D2F8882002F44072DF
:102AF000B2F5007F34D005D8A2B3B2F5807F33D1D0
:102B00000422C3E7B2F5407F30D10822BEE702F5C8
:102B1000C832D2F8882002F44062B2F5006F27D0A4
:102B200005D83AB3B2F5806F26D10422AEE7B2F5EC
:102B3000406F23D10822A9E70222A7E70222A5E7D6
:102B40000222A3E70022A1E710229FE710229DE7BF
:102B500002229BE7002299E7102297E7102295E7CF
:102B6000022293E7002291E710228FE710228DE7DF
:102B700002228BE7002289E7102287E7102285E7EF
:102B8000082A00F28C80DFE802F0088A2A8A278A65
:102B90008A8A05004FF4004003E0FEF7ABFE0028F0
:102BA0007FD0626802EB420383427CD8B0EB023FE5
:102BB0007BD8010E00025308C0184FF0000341F10A
:102BC0000001FDF755FBA0F54072124B9A426ED8FA
:102BD0002368D860002055E0FEF768FADFE70E486A
:102BE000DFE7082A65D8DFE802F0193305643664A8
:102BF00064641D00084815E0F369FFEF00800040A1
:102C0000003801400044004000480040004C0040B3
:102C100000500040FFFC0F000024F400FEF76AFEA5
:102C2000002848D06268530803EB4000B0FBF2F084
:102C300080B2A0F110024FF6EF739A423DD820F017
:102C40000F03C0F3420018432368D860002019E046
:102C5000FEF762FEE4E7FEF729FAE1E71B4802E02F
:102C6000FEF748FE68B3636800EB5300B0FBF3F077
:102C700080B2A0F110024FF6EF739A4223D8236876
:102C8000D860002000232366636610BDFEF744FE73
:102C9000E8E7FEF70BFAE5E74FF40040E3E7012031
:102CA000F0E70020EEE70120ECE70120EAE7012051
:102CB000E8E70120E6E70020E4E70120E2E7012061
:102CC000E0E70020DEE70120DCE700BF0024F4009D
:102CD000436A13F0010F06D00268536823F40033EF
:102CE000816A0B435360436A13F0020F06D00268F7
:102CF000536823F48033C16A0B435360436A13F073
:102D0000040F06D00268536823F48023016B0B4341
:102D10005360436A13F0080F06D00268536823F427
:102D20000043416B0B435360436A13F0100F06D00E
:102D30000268936823F48053816B0B439360436A6A
:102D400013F0200F06D00268936823F40053C16B80
:102D50000B439360436A13F0400F0AD00268536834
:102D600023F48013016C0B435360036CB3F5801F95
:102D70000BD0436A13F0800F06D00268536823F427
:102D80000023816C0B43536070470268536823F43F
:102D9000C003416C0B435360EBE72DE9F843054654
:102DA0000F4616469946DDF820802C68E46937EA1C
:102DB00004030CBF4FF0010C4FF0000CB4453CD1A4
:102DC000B8F1FF3FF1D0FEF70FF9A0EB0900404545
:102DD00021D8B8F1000F1ED02B681A6812F0040F2A
:102DE000E3D0DA6912F4006FDFD04FF400621A62A8
:102DF0002A68136823F4D07313602A68936823F059
:102E00000103936020236B67AB67EB67002385F8B2
:102E10007030032012E02A68136823F4D073136023
:102E20002A68936823F00103936020236B67AB67E4
:102E3000002385F87030032000E00020BDE8F8830F
:102E40002DE9F04182B01E46436F202B55D1044638
:102E50000D469046002954D0002A54D090F8703086
:102E6000012B52D0012380F870300023C367212347
:102E70004367FEF7B9F80746A4F85080A4F85280DB
:102E8000A368B3F5805F05D04FF00008002384F8F5
:102E9000703014E0236913B14FF00008F6E7A8463C
:102EA0000025F3E738F8023B2268C3F308031385D3
:102EB000B4F8522092B2013A92B2A4F85220B4F877
:102EC00052309BB273B100963B46002280212046CF
:102ED000FFF763FFD8B9002DE4D0236815F8012B64
:102EE0001A85E5E700963B46002240212046FFF781
:102EF00054FF70B92023636700E0022002B0BDE8F0
:102F0000F0810120FAE70120F8E70220F6E703202C
:102F1000F4E70320F2E730B583B004460023C3672B
:102F2000FEF762F805462268126812F0080F0CD10D
:102F300023681B6813F0040F15D120236367A36770
:102F4000002084F8700003B030BD6FF07E43009322
:102F5000034600224FF400112046FFF71EFF002811
:102F6000E6D00320EFE76FF07E4300932B4600226C
:102F70004FF480012046FFF710FF0028DDD003202A
:102F8000E1E768B310B50446436F03B324236367D6
:102F90002268136823F0010313602046FFF704FD45
:102FA000012813D0636ABBB92268536823F49043A5
:102FB00053602268936823F02A03936022681368A1
:102FC00043F0010313602046FFF7A5FF10BD80F812
:102FD0007030FDF709FDD9E72046FFF779FEE3E7FA
:102FE000012070470F49D1F8883043F47003C1F8CD
:102FF00088300D4B1A6842F001021A600020986078
:103000001A6822F0A85222F410221A604FF480525B
:10301000DA601A6822F480221A6098614FF0006327
:103020008B60704700ED00E00010024000B583B0F7
:103030004FF0FF330193052300930623072200215D
:10304000034800F07FF800F0BFF803B05DF804FB20
:10305000FC01002000B587B0244800F053FB12218A
:103060004FF4D86000F03CF9342140F2C16000F028
:1030700037F9562140F2C26000F032F9782140F26F
:10308000C36000F02DF94FF4D86000F067F90246F4
:10309000174901A800F03EFB01A800F0ADFA40F28C
:1030A000C16000F05BF90246124901A800F032FB52
:1030B00001A800F0A1FA40F2C26000F04FF9024608
:1030C0000D4901A800F026FB01A800F095FA40F296
:1030D000C36000F043F90246084901A800F01AFB5A
:1030E00001A800F089FA07B05DF804FB184A00084F
:1030F000384A0008504A0008684A0008804A000818
:1031000010B582B0059C01949DF81040009400F029
:103110004FF902B010BD08B500F03CF908BD08B584
:1031200000F0EAF908BD08B500F07AF818B100F02F
:1031300077F8062803D100F089F800F01BF900F0B9
:103140007BF808BDF0B583B0054611461F46002444
:10315000019402260096234601220430FFF7D0FF97
:103160000194009623460122394605F11800FFF725
:10317000C7FF01940096234601229DF9201005F116
:103180002C00FFF7BDFF03B0F0BD000000B587B015
:10319000ADF80E1000238DF817300A480268136846
:1031A00043F0400313604FF0FF33009301230DF110
:1031B00017020DF10E01FFF787FA9DF8170007B00F
:1031C0005DF804FBB000002070B582B0134D0126FD
:1031D0000196002400942346324621462846FFF7F4
:1031E0008FFF0196009423463246082105F1A40082
:1031F000FFF786FF0194009423462246132105F130
:103200001400FFF77DFF0194009423462246142109
:1032100005F12800FFF774FF02B070BD980100208F
:10322000014B1878704700BFA0020020014B1870B6
:10323000704700BFA002002008B50348FFF76FFFEA
:103240000128FAD008BD00BFAC01002038B50C4CF5
:1032500000212046FFF75FFFA4F14005C02128466A
:10326000FFF794FF00212846FFF790FF0121204639
:10327000FFF751FFFFF7E0FF0120FFF7D7FF38BD51
:103280003C020020F8B507460E461546FFF74BFFF7
:10329000114C00212046FFF73EFF403C0D21204607
:1032A000FFF774FF390A2046FFF770FFF9B2204696
:1032B000FFF76CFF002405E0315D0848FFF766FF6B
:1032C0000134A4B2AC42F7D301210348FFF723FF36
:1032D000FFF7B2FFF8BD00BF3C020020FC01002058
:1032E00000B583B08DF8071001220DF10701FFF73B
:1032F000C9FF03B05DF804FBF8B507460E46154656
:10330000FFF711FF134C00212046FFF704FF403C5C
:103310001D212046FFF73AFF390A2046FFF736FF06
:10332000F9B22046FFF732FF00212046FFF72EFFBB
:10333000002406E000210848FFF728FF305501343B
:10334000A4B2AC42F6D301210248FFF7E4FEFFF736
:1033500073FFF8BD3C020020FC01002000B583B0E3
:1033600001220DF10701FFF7C7FF9DF8070003B029
:103370005DF804FB00B583B00122019200920023A6
:1033800009210348FFF7BCFE03B05DF804FB00BF52
:103390008C02002008B590F900306F2B07DCB3F1E8
:1033A000FF3F04D0CAB241884068FEF744FF08BD21
:1033B00030B58BB004469DF838006F292EDC2170A3
:1033C000B1F1FF3F2AD001F00F0E4FF0010C0CFAC3
:1033D0000EFCA4F802C011F0F00121D14FF0904191
:1033E000616001F1784101F50431CD6C45F00105D2
:1033F000CD64C96C01F001010091009961880591CB
:10340000A072079002210891002A4FD10023069351
:10341000012A64D005A96068FEF718FE0BB030BD24
:10342000102913D0202921D030292FD02E496160B6
:1034300001F1784101F5FA31CD6C45F08005CD649C
:10344000C96C01F0800104910499D7E727496160B4
:1034500001F1784101F50331CD6C45F00205CD64F1
:10346000C96C01F0020101910199C7E7204961602F
:1034700001F1784101F50231CD6C45F00405CD64D0
:10348000C96C01F0040102910299B7E71949616022
:1034900001F1784101F50131CD6C45F00805CD64AD
:1034A000C96C01F0080103910399A7E7032A06D02C
:1034B000022A07D0012B0FD001230693A8E703238C
:1034C0000693A5E7012B04D0022306930F9B0993D3
:1034D0009EE712230693F9E71123069398E70F99C5
:1034E0002046FFF757FF95E7001C004800040048FE
:1034F00000080048000C004808B590F900306F2B18
:1035000009DCB3F1FF3F01D1002005E041884068AC
:10351000FEF78AFE00E0002008BD000008B578B97B
:103520000023094A52F823301BB11A690AB1D8683E
:10353000904708BD52080133DBB2012AFAD1F0E707
:1035400002460023F9E700BFA4020020DFF834D0D0
:10355000FFF748FD002103E00B4B5B58435004315B
:103560000A480B4B42189A42F6D30A4A02E000235B
:1035700042F8043B084B9A42F9D300F011F8FDF7EA
:1035800093F9FEE700800120484B0008000000206E
:103590007000002070000020F8020020FEE700000C
:1035A00070B50D4D0D4C641BA4100026A64209D128
:1035B0000B4D0C4C01F0F2F9641BA4100026A6423E
:1035C00005D170BD55F8043B98470136EEE755F834
:1035D000043B98470136F2E7384B0008384B0008A7
:1035E000384B00083C4B000802440346934200D18C
:1035F000704703F8011BF9E70FB40A4B13B51C68B9
:1036000024B1A36913B9204600F07EFA05AB049AF1
:10361000A1680193204600F0A9FD02B0BDE810406A
:1036200004B070470C00002070B50E46054618B176
:1036300083690BB900F068FAAB69AC6813B9284626
:1036400000F062FA2C4B9C4220D16C68636EDB0761
:1036500005D4A389980502D4A06D00F0F3FAA389DC
:1036600019071DD52369DBB1013EA36816F8011FB8
:10367000013BA36039BB002B38DA22460A212846D9
:1036800000F068F8013011D00A2511E01B4B9C4274
:1036900001D1AC68DAE71A4B9C4208BFEC68D5E769
:1036A0002146284600F0A8F80028DDD04FF0FF356D
:1036B000636EDA0705D4A3899B0502D4A06D00F0E0
:1036C000C2FA284670BD002B04DAA2699A4206DCD1
:1036D0000A2904D023685A1C22601970C5E72246C3
:1036E000284600F037F80130BFD1DFE723680A250C
:1036F0005A1C22601D70DBE7BC4A0008DC4A000847
:103700009C4A0008024B01461868FFF78DBF00BFB6
:103710000C0000200EB400B59CB01DAB02900690CA
:103720006FF00041094807910491094953F8042BAF
:1037300005910068019302A900F0EEFB029B0022B4
:103740001A701CB05DF804EB03B070470C00002049
:103750000802FFFFF8B50E461446054618B1836906
:103760000BB900F0D1F9214B9C422BD16C68A369B5
:10377000A360A3891A072FD523696BB32369206837
:10378000C01A6369F6B28342374604DC21462846F4
:1037900000F026F930BBA368013BA36023685A1CE4
:1037A00022601E7063690130834204D0A389DB0765
:1037B00006D50A2E04D12146284600F011F988B911
:1037C0003846F8BD0A4B9C4201D1AC68CFE7094BA3
:1037D0009C4208BFEC68CAE72146284600F00CF876
:1037E0000028CBD04FF0FF37EAE700BFBC4A000803
:1037F000DC4A00089C4A0008324B70B51D6806463A
:103800000C4625B1AB6913B9284600F07DF92E4B63
:103810009C420FD16C68A389B4F90C2019072CD4F1
:10382000DD0611D40923336042F04003A3814FF039
:10383000FF303EE0254B9C4201D1AC68EBE7244BC6
:103840009C4208BFEC68E6E7580712D5616B41B1AE
:1038500004F14403994202D0304600F05BFA0023A1
:103860006363A38923F02403A38100236360236996
:103870002360A38943F00803A38123694BB9A3897B
:1038800003F42073B3F5007F03D02146304600F0E7
:1038900001FAA089B4F90C2010F001030AD000232A
:1038A000A36063695B42A361236943B910F08000A0
:1038B000BAD170BD810758BF6369A360F4E70020E7
:1038C000F7E700BF0C000020BC4A0008DC4A0008F3
:1038D0009C4A00088A892DE9F041054610070C46EC
:1038E00058D44B68002B05DC0B6C002B02DC00204D
:1038F000BDE8F081E66A002EF9D0002312F4805270
:103900002F682B6032D0606DA3895A0705D5636894
:10391000C01A636B0BB1236CC01A00230246E66A1F
:10392000216A2846B047431CA38906D129681D296E
:103930002CD82A4ACA40D60728D500226260D9046A
:103940002269226004D5421C01D12B6803B960654D
:10395000616B2F600029CAD004F14403994202D060
:10396000284600F0D7F900206063C1E7216A0123EF
:103970002846B047411CC7D12B68002BC4D01D2B53
:1039800001D0162B01D12F60B1E7A38943F040038A
:10399000A381ADE70F69002FA9D093070E6808BF78
:1039A0004B690F6018BF0023A6EB07088B60B8F1C6
:1039B000000F9CDD216AA66A43463A462846B04776
:1039C000002806DCA38943F04003A3814FF0FF30B9
:1039D0008EE70744A8EB0008E9E700BF010040209C
:1039E00038B50B6905460C4613B90025284638BD85
:1039F00018B183690BB900F087F8144B9C421BD1B6
:103A00006C68B4F90C30002BEFD0626ED00704D490
:103A1000990502D4A06D00F015F928462146FFF75C
:103A200059FF636EDA070546E0D4A3899B05DDD410
:103A3000A06D00F008F9D9E7054B9C4201D1AC68B4
:103A4000DFE7044B9C4208BFEC68DAE7BC4A000899
:103A5000DC4A00089C4A0008002310B50446C0E96F
:103A60000033C0E90433836081814366C28183618E
:103A7000194608225C30FFF7B7FD054B6362054B22
:103A8000A362054BE362054B2462236310BD00BFB4
:103A900015470008374700086F470008934700089C
:103AA000014900F0AFB800BFE139000870B56822E5
:103AB0004D1E55430E4605F1740100F077F904469A
:103AC00040B10021C0E900160C30A06005F1680289
:103AD000FFF78AFD204670BD014800F0B3B800BF73
:103AE000E5020020014800F0AEB800BFE50200206A
:103AF000014800F0A7B800BFE6020020014800F02E
:103B0000A2B800BFE602002010B50446FFF7F0FFA0
:103B1000A3691BB1BDE81040FFF7F0BFC4E9123341
:103B20002365134B134A1B68A262A34204BF0123FF
:103B3000A361204600F020F86060204600F01CF8E9
:103B4000A060204600F018F80022E06004216068C0
:103B5000FFF782FFA06801220921FFF77DFFE068DF
:103B600002221221FFF778FF0123A361D2E700BFF1
:103B7000984A0008A13A0008F8B50746FFF7ACFFDD
:103B80001E4B1E68B36913B93046FFF7BDFF4836B8
:103B9000D6E90134013B03D533680BB33668F7E748
:103BA000B4F90C50D5B9164BE36004F158006566C2
:103BB00000F047F8FFF796FFC4E90155C4E9045542
:103BC0002560A5610822294604F15C00FFF70CFD81
:103BD000C4E90D55C4E912552046F8BD6834D9E74B
:103BE00004213846FFF762FF044630600028D5D133
:103BF000FFF778FF0C233B60EEE700BF984A000810
:103C00000100FFFF2DE9F8430646884600F148040D
:103C10000027D4E90195B9F1010905D52468002CE4
:103C2000F7D13846BDE8F883AB89012B07D9B5F940
:103C30000E30013303D029463046C047074368356C
:103C4000E9E770477047704770B50E46B1F90E103E
:103C5000002996B014461D4608DAB6F90C30002249
:103C60002A601A0610D44FF480630EE06A4600F012
:103C7000B7FD0028F1DB019A02F47042A2F500536F
:103C80005A425A412A60EEE740230020236016B0D2
:103C900070BD00008B8973B59D0706460C4607D59D
:103CA00004F14703236023610123636102B070BD07
:103CB00001AB6A46FFF7C8FF00990546304600F0A1
:103CC00075F848B9B4F90C309A05EFD423F0030322
:103CD00043F00203A381E3E70D4BB362A3892060A5
:103CE00043F08003A381009B6361019B20615BB172
:103CF000B4F90E10304600F085FD28B1A38923F0F9
:103D0000030343F00103A381A0890543A581CDE707
:103D1000A13A000837B5002944D051F8043C01907D
:103D2000002BA1F10404B8BFE41800F0B5FD1E4A51
:103D30000198136833B96360146003B0BDE8304084
:103D400000F0B0BDA34208D9256861198B4201BFBC
:103D500019685B6849192160EDE71A465B680BB189
:103D6000A342FAD911685518A5420BD12468214401
:103D70005418A3421160E0D11C685B685360214471
:103D80001160DAE702D90C230360D6E725686119D0
:103D90008B4204BF19685B68636004BF49192160E6
:103DA0005460CAE703B030BDE8020020F8B5CD1C6E
:103DB00025F0030508350C2D38BF0C25002D0646CF
:103DC00001DBA94203D90C2333600020F8BD00F0C9
:103DD00063FD21490A6814469CB9204F3B6823B90A
:103DE0002146304600F086FC38602946304600F017
:103DF00081FC431C23D10C233360304600F052FD7C
:103E0000E3E723685B1B17D40B2B03D923601C4407
:103E1000256004E06368A2420CBF0B60536030462B
:103E200000F040FD04F10B00231D20F00700C21A32
:103E3000CCD01B1AA350C9E722466468CCE7C41C47
:103E400024F00304A042E3D0211A304600F052FCD3
:103E50000130DDD1CFE700BFE8020020EC020020F6
:103E60002DE9F0478E689E4282460C4690461F46DA
:103E700038D88A8912F4906F32D025680969A5EB89
:103E80000109656905EB450505EBD57501334B4423
:103E90006D109D4238BF1D46530531D52946FFF7A9
:103EA00085FF064650B90C23CAF80030A38943F0B9
:103EB0004003A3814FF0FF30BDE8F08721694A46F7
:103EC00000F0C2FCA38923F4906343F08003A38134
:103ED000266165614E44A5EB09052660A5603E4656
:103EE000BE4200D93E4620683246414600F0BAFC48
:103EF000A3689B1BA3602368334423600020DBE797
:103F00002A4600F0D5FC06460028E1D1216950463A
:103F1000FFF700FFC7E700002DE9F04F98468B89B7
:103F20001B069DB007460D4614460ED50B6963B9B6
:103F30004021FFF73BFF2860286120B90C233B603C
:103F40004FF0FF30D1E040236B6100230993202321
:103F50008DF82930CDF80C803023DFF8A8818DF85A
:103F60002A304FF0010923469A4613F8012B0AB173
:103F7000252AF9D1BAEB040B0BD05B462246294621
:103F80003846FFF76DFF013000F0AA80099A5A44C5
:103F900009929AF80030002B00F0A28000234FF025
:103FA000FF32CDE905230AF1010A049307938DF846
:103FB00053301A935446052214F8011B5148FCF75C
:103FC00007F9049AD8B9D00644BF20238DF853309E
:103FD000110744BF2B238DF853309AF800302A2B59
:103FE00015D0079A544600204FF00A0C214611F8CC
:103FF000013B303B092B4ED9B0B1079214E0A0EB46
:10400000080309FA03F313430493A246D2E7039B80
:10401000191D1B680391002BBBBF5B4242F00202DB
:1040200007930793B8BF049223782E2B0CD16378A3
:104030002A2B35D1039B1A1D1B680392002BB8BF96
:104040004FF0FF3302340593DFF8C8A02178032234
:104050005046FCF7BDF840B14023A0EB0A0003FA3C
:1040600000F0049B03430134049314F8011B264819
:104070008DF828100622FCF7ABF8002838D0234B27
:104080001BBB039B073323F0070308330393099BF0
:104090003344099367E70CFB02320C460120A5E785
:1040A00000230134059319464FF00A0C204610F8FE
:1040B000012B303A092A03D9002BC5D00591C3E75B
:1040C0000CFB012104460123F0E703AB00932A46D1
:1040D0000F4B04A93846AFF30080421C0646D6D1E8
:1040E000AB895B063FF52CAF09981DB0BDE8F08F9A
:1040F00003AB00932A46064B04A9384600F0D4F9D6
:10410000EBE700BFFC4A0008064B00080000000077
:10411000613E0008024B00089368013B002B10B47D
:10412000936008DA9469A34201DB0A2903D15DF8A0
:10413000044BFFF70FBB1368581C1060197008463A
:104140005DF8044B7047F8B506460F461446D5187F
:10415000AC4201D1002007E014F8011B3A4630467A
:10416000FFF7DAFF431CF3D1F8BD00002DE9F04F53
:104170000D469DB014469846064618B183690BB9A2
:10418000FFF7C2FC894B9D421BD175686B6ED90746
:1041900005D4AB899A0502D4A86DFFF753FDAB890E
:1041A0001B0701D52B69EBB929463046FFF724FBE5
:1041B000C0B16B6EDC070ED54FF0FF301DB0BDE80F
:1041C000F08F7B4B9D4201D1B568DFE7794B9D4273
:1041D00008BFF568DAE7AB899805EDD4A86DFFF75D
:1041E00032FDE9E70023099320238DF82930CDF82B
:1041F0000C803023DFF8C0818DF82A304FF00109A0
:1042000023469A4613F8012B0AB1252AF9D1BAEBB5
:10421000040B0BD05B46224629463046FFF793FF3E
:10422000013000F0AA80099A5A4409929AF80030A5
:10423000002B00F0A28000234FF0FF32CDE90523D0
:104240000AF1010A049307938DF853301A935446E8
:10425000052214F8011B5848FBF7BAFF049AD8B995
:10426000D10644BF20238DF85330130744BF2B23BE
:104270008DF853309AF800302A2B15D0079A5446FF
:1042800000204FF00A0C214611F8013B303B092B6E
:104290004ED9B0B1079214E0A0EB080309FA03F37A
:1042A00013430493A246D2E7039B191D1B68039195
:1042B000002BBBBF5B4242F0020207930793B8BFDB
:1042C000049223782E2B0CD163782A2B35D1039BB3
:1042D0001A1D1B680392002BB8BF4FF0FF33023446
:1042E0000593DFF8E4A0217803225046FBF770FF26
:1042F00040B14023A0EB0A0003FA00F0049B034303
:104300000134049314F8011B2C488DF82810062260
:10431000FBF75EFF00283FD0294B1BBB039B0733F5
:1043200023F0070308330393099B3B44099367E792
:104330000CFB02320C460120A5E700230134059353
:1043400019464FF00A0C204610F8012B303A092A82
:1043500003D9002BC5D00591C3E70CFB012104460E
:104360000123F0E703AB00932A46164B04A930461D
:10437000AFF300800746781CD6D16B6ED90705D401
:10438000AB899A0502D4A86DFFF75DFCAB895B068B
:104390003FF512AF099811E703AB00932A46094B8A
:1043A00004A9304600F080F8E4E700BFBC4A0008EA
:1043B000DC4A00089C4A0008FC4A0008064B00083A
:1043C0000000000047410008024B00082DE9F047BB
:1043D000164699468A680B69DDF820809342B8BF7B
:1043E0001346336091F8432007460C460AB1013367
:1043F00033602368990642BF33680233336025680F
:1044000015F0060506D104F1190AE36832689B1A13
:10441000AB4226DC94F84320131E226818BF012308
:1044200092062BD404F1430249463846C047013076
:104430001ED02368E568326803F00603042B08BF2A
:10444000AD1AA36822690CBF25EAE57500259342E1
:10445000C4BF9B1AED1800261A34B5421AD10020A9
:1044600008E00123524649463846C047013003D18F
:104470004FF0FF30BDE8F0870135C6E7E1185A1C60
:10448000302081F84300224494F8451082F843100C
:104490000233C7E70123224649463846C047013068
:1044A000E6D00136D9E700002DE9FF470F7E0C9DCD
:1044B000782F914680460C469A4601F1430207D870
:1044C000622F0AD8002F00F0D880582F00F0A38068
:1044D00004F1420584F842703AE0A7F16303152B1A
:1044E000F6D801A151F823F04145000855450008D0
:1044F000D1440008D1440008D1440008D144000848
:1045000055450008D1440008D1440008D1440008B2
:10451000D14400086146000885450008434600086C
:10452000D1440008D144000883460008D144000863
:1045300085450008D1440008D14400084B460008D6
:104540002B681A1D1B682A6004F1420584F842306A
:104550000123A3E020682968060601F104030AD5B7
:104560000E682B60002E03DA2D23764284F8433048
:104570005E480A2319E00E682B6010F0400F18BF48
:1045800036B2EFE72B682068191D2960010601D5B6
:104590001E6802E04606FBD51E8854486F2F0CBFEC
:1045A00008230A23002184F843106568A560002DC4
:1045B000A2BF216821F0040121600EB9002D4DD069
:1045C0001546B6FBF3F103FB1167C75D05F8017DE6
:1045D0003746BB420E46F4D9082B0BD12368DE07C1
:1045E00008D5236961689942DEBF302305F8013C94
:1045F00005F1FF35521B2261CDF800A04B4603AAFE
:1046000021464046FFF7E2FE01304CD14FF0FF302B
:1046100004B0BDE8F087354881F845702968236803
:1046200051F8046B29601D0614D5DF0744BF43F021
:10463000200323601EB9236823F020032360102386
:10464000B0E7236843F0200323607823284884F8E8
:104650004530E3E7590648BFB6B2E6E71546BBE783
:104660002B6826686169181D286035061B6801D50E
:10467000196002E07006FBD51980002323611546FE
:10468000BAE72B681A1D2A601D6862680021284657
:10469000FBF79EFD08B1401B606063682361002347
:1046A00084F84330A8E723692A4649464046D04764
:1046B0000130ABD023689B0713D4E068039B98427A
:1046C000B8BF1846A4E70123324649464046D047C2
:1046D00001309BD00135E36803995B1AAB42F2DCF1
:1046E000EBE7002504F11906F5E700BF0D4B0008C4
:1046F0001E4B000838B5064D0023044608462B60C3
:1047000000F03EF9431C02D12B6803B1236038BD91
:10471000F002002010B50C46B1F90E1000F0EEF8D2
:104720000028ABBF636DA3891B1823F48053ACBF73
:104730006365A38110BD2DE9F0411F468B89DB0520
:1047400005460C46164605D5B1F90E100223002287
:1047500000F068F8A389B4F90E1023F48053A38104
:1047600032463B462846BDE8F04100F017B810B588
:104770000C46B1F90E1000F055F8431CA38915BF83
:10478000606523F4805343F48053A38118BFA38151
:1047900010BDB1F90E1000F013B8000038B5074D88
:1047A00004460846114600222A601A46FBF778FFA5
:1047B000431C02D12B6803B1236038BDF0020020F6
:1047C00038B5064D0023044608462B6000F0B0F8CB
:1047D000431C02D12B6803B1236038BDF0020020D6
:1047E00038B5074D00230446084611462B6000F0FB
:1047F000A7F8431C02D12B6803B1236038BD00BF6A
:10480000F002002038B5064D0023044608462B6010
:1048100000F09EF8431C02D12B6803B1236038BD21
:10482000F002002038B5074D044608461146002224
:104830002A601A4600F094F8431C02D12B6803B199
:10484000236038BDF00200200A44914200F1FF339A
:1048500000D1704710B511F8014B03F8014F914298
:10486000F9D110BD884210B501EB020402D984428F
:10487000234607D8431EA14208D011F8012B03F8A4
:10488000012FF8E7024401468A4200D110BD13F817
:10489000014D02F8014DF7E70148FFF7D3B900BF1A
:1048A000E40200200148FFF7CEB900BFE402002077
:1048B000F8B5074614460E4621B9BDE8F840114642
:1048C000FFF774BA22B9FFF725FA25462846F8BD46
:1048D00000F026F8A0420FD221463846FFF766FACC
:1048E00005460028F2D031462246FFF7ADFF31469B
:1048F0003846FFF70FFAE9E73546E7E738B5074DE1
:1049000004460846114600222A601A4600F030F894
:10491000431C02D12B6803B1236038BDF002002094
:1049200051F8043C181F002BBCBF0B58C01870472F
:10493000024B58221A604FF0FF307047F0020020FF
:10494000024B58221A604FF0FF307047F0020020EF
:10495000024B58221A600020704700BFF00200206E
:10496000024B58221A604FF0FF307047F0020020CF
:10497000024B58221A604FF0FF307047F0020020BF
:10498000044A05491368002B08BF0B461844106001
:1049900018467047F4020020F8020020F8B500BF66
:1049A000F8BC08BC9E467047F8B500BFF8BC08BC10
:0849B0009E4670470000000064
:1049B80074686520697320676363206170706C692F
:1049C800636174696F6E0000000000000000000061
:1049D800010203040607080900000000010203049D
:1049E800A0860100400D0300801A060000350C0067
:1049F80040420F0080841E0000093D0000127A002A
:104A08000024F40000366E010048E801006CDC0266
:104A1800726567697374657220777269746520615D
:104A28006E64207265616420746573740000000010
:104A38007468652073796E6320302069732030783C
:104A4800253032780A0000007468652073796E6337
:104A58002031206973203078253032780A00000030
:104A68007468652073796E6320322069732030780A
:104A7800253032780A0000007468652073796E6307
:104A88002033206973203078253032780A000000FE
:104A980010000020000000000000000000000000DE
:104AA80000000000000000000000000000000000FE
:104AB80000000000000000000000000000000000EE
:104AC80000000000000000000000000000000000DE
:104AD80000000000000000000000000000000000CE
:104AE80000000000000000000000000000000000BE
:104AF80000000000232D302B2000686C4C006566F8
:104B08006745464700303132333435363738394116
:104B1800424344454600303132333435363738392C
:084B2800616263646566000030
:084B300070B7FF7F01000000D7
:084B3800B501000800000000B7
:084B40009101000800000000D3
:104B4800010000001000000000093D0010000020D6
:104B580000000000BC4A0008DC4A00089C4A000823
:104B6800000000000000000000000000000000003D
:104B7800000000000000000000000000000000002D
:104B8800000000000000000000000000000000001D
:104B9800000000000000000000000000000000000D
:104BA80000000000000000000000000000000000FD
:040000050800354D6D
:00000001FF
